S0120000546865726D6F737461742E73726563E7
S11300000C94AE010C94CB010C94CB010C94CB0159
S11300100C94CB010C94CB010C94CB010C94CB012C
S11300200C94CB010C94CB010C94CB010C94CB011C
S11300300C94CB010C94CB010C94CB010C94CB010C
S11300400C94CB010C94CB010C94CB010C94CB01FC
S11300500C94CB01000000000000000000005F00D1
S113006000000000000007000700000000147F14D7
S11300707F14000000242A7F2A12000000231308A2
S11300806462000000364955225000000000050358
S113009000000000001C2241000000000041221C5E
S11300A00000000000082A1C2A0800000008083E7E
S11300B00808000000A06000000000000008080814
S11300C00808000000606000000000000020100824
S11300D004020000003E5149453E00000000427FFA
S11300E04000000000625149494600000022414995
S11300F049360000001814127F10000000274545FF
S113010045390000003C4A494930000000017109AA
S113011005030000003649494936000000064949F4
S1130120291E000000003636000000000000AC6C00
S11301300000000000081422410000000014141400
S113014014140000004122140800000000020151B0
S11301500906000000324979413E0000007E090989
S1130160097E0000007F494949360000003E4141B4
S113017041220000007F4141221C0000007F4949C8
S113018049410000007F090909010000003E414186
S113019051720000007F0808087F000000417F4181
S11301A000000000002040413F010000007F0814CF
S11301B022410000007F404040400000007F020CCC
S11301C0027F0000007F0408107F0000003E4141D0
S11301D0413E0000007F090909060000003E41512C
S11301E0215E0000007F09192946000000264949C4
S11301F0493200000001017F01010000003F40403E
S1130200403F0000001F2040201F0000003F4038F6
S1130210403F0000006314081463000000030478E6
S1130220040300000061514945430000007F41413F
S11302300000000000020408102000000041417F7B
S1130240000000000004020102040000008080801D
S113025080800000000102040000000000205454CB
S113026054780000007F4844443800000038444477
S11302702800000000384444487F000000385454EB
S11302805418000000087E09020000000018A4A40D
S1130290A47C0000007F08040478000000007D00B6
S11302A0000000000080847D00000000007F102812
S11302B04400000000417F4000000000007C04185E
S11302C004780000007C08047C00000000384444EA
S11302D03800000000FC2424180000000018242426
S11302E0FC00000000007C08040000000048545496
S11302F02400000000047F4400000000003C404053
S11303007C000000001C2040201C0000003C403009
S1130310403C00000044281028440000001CA0A019
S11303207C000000004464544C4400000008364142
S11303300000000000007F000000000000413608BB
S11303400000000000020101020100000002050596
S11303500200000000FFFFFFFFFF000011241FBE8A
S1130360CFE5D8E0DEBFCDBF10E0A0E6B0E0E0E22C
S1130370FDE002C005900D92A838B107D9F720E03E
S1130380A8E8B0E001C01D92A139B207E1F70E94CC
S11303905C060C948E060C9400008D9A9598089532
S11303A08D9A959A08958E9A969808958E9A969A0B
S11303B008958F9A979A08958C9A949A08958C9A8E
S11303C094980895CF93C82F0E94D3010E94CD0121
S11303D08C2F90E00E9489060E94D001CF9108954D
S11303E0CF93C82F0E94D6010E94CD018C2F90E09C
S11303F00E9489060E94D001CF910895CF93DF9384
S1130400EC010E94D6010E94CD018D2F90E00E9444
S11304108906CE0199270E9489060E94D001DF91A6
S1130420CF9108950F931F93CF93DF938C01EB012A
S11304308AE20E94E201C8010E94FE01CE010E94EC
S1130440FE01DF91CF911F910F9108950F931F9398
S1130450CF93DF938C01EB018BE20E94E201C80190
S11304600E94FE01CE010E94FE01DF91CF911F91F7
S11304700F91089580938E0081110DC080EF90E05C
S113048090938D0080938C0080E491E09093900091
S113049080938F000895813061F480E491E090931B
S11304A08D0080938C0080EF90E090939000809377
S11304B08F000895CF92DF92EF92FF920F931F93D4
S11304C0CF93DF936C01EB018A01790180918E0057
S11304D081111AC0B601640F751FC6010E94120271
S11304E0BE01CE010E9426028CE20E94E2010115A7
S11304F0110549F1C0E0D0E0C7010E94FE01219638
S1130500C017D107C9F71FC08130E9F4CB010E949D
S1130510120280918C0090918D008C199D09BC0170
S1130520801B910B0E9426028CE20E94E2010115BD
S1130530110549F0C0E0D0E0C7010E94FE012196F8
S11305400C171D07C9F7DF91CF911F910F91FF90F1
S1130550EF90DF90CF900895CF92DF92EF92FF92C9
S11305600F931F93CF93DF936C01EB018A01790101
S113057080918E0081111AC0B601C6010E94120238
S1130580BE01600F711FCE010E9426028CE20E9400
S1130590E2010115110549F1C0E0D0E0C7010E9454
S11305A0FE012196C017D107C9F71FC08130E9F4B5
S11305B0640F751FCE010E94120280918C009091ED
S11305C08D008C199D09BC010E9426028CE20E94B8
S11305D0E2010115110549F0C0E0D0E0C7010E9415
S11305E0FE0121960C171D07C9F7DF91CF911F91CA
S11305F00F91FF90EF90DF90CF900895AF92BF924C
S1130600CF92DF92EF92FF920F931F93CF93DF93DA
S1130610EC017B016A01590198010E945A02B70159
S11306206A0D7B1D9801A601CE010E945A02980111
S1130630A501B701CE010E94AC029801A501B70142
S1130640CE018C0D9D1D0E94AC02DF91CF911F91B4
S11306500F91FF90EF90DF90CF90BF90AF900895EF
S1130660AF92BF92CF92DF92EF92FF920F931F93BC
S1130670CF93DF932115310581F06A01EB015C0111
S11306807901E60EF71E9801A601BE01C5010E947C
S11306905A022196EC16FD06B1F7DF91CF911F9116
S11306A00F91FF90EF90DF90CF90BF90AF9008959F
S11306B02F923F924F925F926F927F928F929F926E
S11306C0AF92BF92CF92DF92EF92FF920F931F935C
S11306D0CF93DF9300D000D0CDB7DEB749835A83E0
S11306E06901280190EE980F903608F08FE1282ECA
S11306F0312CC101880F991F880F991F880F991FEA
S11307009C012C5A30403901C101880F991F880F70
S1130710991F880F991FFC01E45AF0401F01862E8F
S1130720972EF301A490E980FA801C821B82B12CDD
S1130730C5010B8002C0959587950A94E2F780FF66
S113074007C082019601A601B701C4010E943003CB
S11307502B813C812F5F3F4F3C832B83EC0CFD1C92
S11307602830310529F73FEF631A730A8C0C9D1C5E
S113077062147304B1F60F900F900F900F90DF91F5
S1130780CF911F910F91FF90EF90DF90CF90BF908A
S1130790AF909F908F907F906F905F904F903F901D
S11307A02F9008956F927F928F929F92AF92BF92F3
S11307B0CF92DF92EF92FF920F931F93CF93DF9329
S11307C0EB015A01690138014901880C991C820E18
S11307D0931E880C991C7C010BC083019601A50112
S11307E0BE010E945803CF3ED10510F4C80DD91D97
S11307F0F70181917F018111F0CFDF91CF911F919A
S11308000F91FF90EF90DF90CF90BF90AF909F90AB
S11308108F907F906F9008950F931F9320918F0076
S11308203091900040918C0050918D008C0160E0DB
S113083070E080E090E00E9430031F910F910895D2
S11308400E9482060E94D0010E94D6010E94DF010C
S11308508FE19EE40197F1F700C000000E94DC01E3
S113086080E00E943A028BEC0E94E20189E30E943C
S1130870F0018CE20E94F00180E00E94F00184E328
S11308800E94F00182E00E94F0018FEC0E94E201DC
S113089080E00E94F00181EC0E94F00180E30E945C
S11308A0F00188EE0E94E20185E80E94F00180E0F8
S11308B00E94F00188E70E94F0018AEE0E94E201A2
S11308C080E00E94F00180E00E94F0018DEE0E9421
S11308D0E20184E60E94F00183E00E94F00182E1DB
S11308E00E94F00181E80E94F00187EF0E94E2017A
S11308F080E20E94F00180EC0E94E20183E20E9407
S1130900F00181EC0E94E20180E10E94F00185EC9B
S11309100E94E2018EE30E94F00188E20E94F0014D
S113092087EC0E94E20186E80E94F00186E30E94BF
S1130930E20188E40E94F0018AE30E94E20185E575
S11309400E94F00181EB0E94E20180E00E94F0012C
S113095088E10E94F00186EB0E94E20188E00E9497
S1130960F00182E80E94F00187E20E94F00182EF28
S11309700E94E20180E00E94F00186E20E94E2010E
S113098081E00E94F00180EE0E94E2018FE00E946B
S1130990F00181E30E94F0018BE20E94F0018CE0FF
S11309A00E94F0018EE00E94F00188E00E94F001B4
S11309B08EE40E94F00181EF0E94F00187E30E941F
S11309C0F00187E00E94F00180E10E94F00183E0E1
S11309D00E94F0018EE00E94F00189E00E94F00183
S11309E080E00E94F00181EE0E94E20180E00E941A
S11309F0F0018EE00E94F00184E10E94F00183E0A6
S1130A000E94F00181E10E94F00187E00E94F00160
S1130A1081E30E94F00181EC0E94F00188E40E94CD
S1130A20F00188E00E94F0018FE00E94F0018CE068
S1130A300E94F00181E30E94F00186E30E94F0012C
S1130A408FE00E94F00181E10E94E2019FEF2DEE10
S1130A5082E0915020408040E1F700C0000089E22C
S1130A600E94E2018CE20E94E20180918800909150
S1130A7089000E940C0408950E9420040E94D90158
S1130A8081E090E00E943A0208950F931F930FEFC4
S1130A901FEF26E930E04CE251E06AE070E08AE0C2
S1130AA090E00E94FE0222E330E04CE251E06AEA68
S1130AB070E08AE090E00E94FE021F910F91089579
S1130AC00F931F938130910551F18230910509F400
S1130AD04BC0892B09F06AC000EE17E028E230E031
S1130AE04CE350E06FEA70E08FE090E00E94300346
S1130AF000E010E028E230E04EE650E06FEA70E0FB
S1130B0080E590E00E94300328E230E044E650E0C3
S1130B106FEA70E083EC90E00E94300347C000E08D
S1130B2010E028E230E04CE350E06FEA70E08FE040
S1130B3090E00E94300300EE17E028E230E04EE639
S1130B4050E06FEA70E080E590E00E94300300E03E
S1130B5010E028E230E044E650E06FEA70E083EC15
S1130B6090E00E94300322C000E010E028E230E070
S1130B704CE350E06FEA70E08FE090E00E943003B5
S1130B8028E230E04EE650E06FEA70E080E590E065
S1130B900E94300300EE17E028E230E044E650E023
S1130BA06FEA70E083EC90E00E9430030FEF1FEFD8
S1130BB028E230E04CE350E06FEA70E08FE090E030
S1130BC00E94FE0228E230E04EE650E06FEA70E058
S1130BD080E590E00E94FE0228E230E044E650E026
S1130BE06FEA70E083EC90E00E94FE0222E030E0C5
S1130BF044EB50E064E170E080E690E00E94D203B0
S1130C0022E030E044EB50E065E570E085E690E0FA
S1130C100E94D20322E030E044EB50E068EC70E044
S1130C208EE690E00E94D2031F910F9108950F93D6
S1130C301F930FEF1FEF22E030E04FE050E06FE032
S1130C4070E085E790E00E94D2031F910F91089510
S1130C5080918A0090918B000E94600580918A00A7
S1130C6090918B00892B11F40E94170608958091AE
S1130C708A0090918B00009739F482E090E0909381
S1130C808B0080938A000895019790938B00809342
S1130C908A00089580918A0090918B00823091059A
S1130CA029F410928B0010928A0008950196909373
S1130CB08B0080938A0008950E943C0581E084BBE8
S1130CC00E9445050E942806999B0DC087EA91E67B
S1130CD00197F1F700C000009999FECF0E943706F2
S1130CE00E942806F1CF9A9BEFCF87EA91E60197FD
S1130CF0F1F700C000009A99FECF0E944A060E94B4
S1130D002806E2CF8CE287BB80E58DB981E08EB9FD
S1130D1008958FB9779BFECF8FB10895F894FFCFD4
S1130D20486F6D650043616C656E646172004C616F
S1130D30756E63680054656D706572617475726573
S10B0D40203A203235B04300D3
S9030000FC
